:100000000C9403040C9420040C9420040C942004FD
:100010000C9420040C9420040C9420040C942004D0
:100020000C9420040C9420040C94521E0C940D1D6E
:100030000C94D41F0C9420040C9420040C942004E1
:100040000C9420040C9420040C9420040C942004A0
:100050000C9420040C94871F0C9420040C9420040E
:100060000C9420040C9420040C9420040C94200480
:100070000C9420040C9420040C9420040C94200470
:100080000C9420040C9420040C9420040C94200460
:100090000C9420040C9420040C9420040C94200450
:1000A0000C9420040C9420040C9420048A068A06E4
:1000B000BD06BD0628074607500850085107C5076A
:1000C000D607D6073B1A621A051C621A051CAE1A1F
:1000D000D11A051CC61BD51BEA21EF21F921ED2100
:1000E000F221F721F521A123A423A723AA23AD23DD
:1000F000B023B3232D002B003900E100E000000005
:100100001E00140004001D0035004D001F001A00E1
:1001100016001B0031004C002000080007000600FC
:1001200046002C00210015000900190048004A0073
:10013000220017000A0005000000E2002900015813
:10014000000002580000E30049002F000000000FEB
:100150000000E70023001C000B0011000000E60077
:10016000240018000D00100038004B0025000C0082
:100170000E003600E4002A00260012000F003700AF
:1001800050002800270013003300520051004E0099
:100190002E0030003400E5004F0000000100010097
:1001A00001000100010000003A000100AC00010064
:1001B0000100B85D3B00A900AA0001000100F200A7
:1001C0003C000100AB0001000100F1003D00010016
:1001D000010001000100B75D3E00010001000100C7
:1001E0000000C45C01000100000001000000B65DD9
:1001F00001000100000001000000C35C3F0001009D
:10020000010001000000B55D400001000100010097
:100210000100CA5C41000100010001003700C65C1A
:100220004200010001000100EF00C75C4300010033
:100230000100ED00EE00CB5C440045000100010030
:10024000F0000000010001000100010001000000B9
:100250000100010001000100010001000100010096
:100260000100010001000100010001000100010086
:100270000100010001000100010001000100010076
:100280000100010001000100000001000100010067
:100290000000010000000100530001000000010007
:1002A0000000010001000100010001000000010048
:1002B00001005F005C005900620001005400600012
:1002C0005D005A0001000100550061005E005B0006
:1002D00063005800560057000100010001000100B2
:1002E000010001000100010001000000050109807A
:1002F000A101850319012AB700150126B700950150
:1003000075108100C0050C0901A101850419012A9D
:10031000A002150126A002950175108100C00501FB
:100320000906A1018506050719E029E71500250141
:100330009508750181020507190029EF15002501AF
:1003400095F07501810205081901290595057501CA
:100350009102950175039101C005010902A10109EE
:1003600001A1000509190129081500250195087545
:100370000181020501093009311581257F9502753A
:1003800008810609381581257F95017508810605C4
:100390000C0A38021581257F950175088106C0C0B9
:1003A00005010906A101050719E029E71500250146
:1003B00095087501810295017508810105071900ED
:1003C00029FF150026FF009506750881000508190C
:1003D000012905950575019102950175039101C0EB
:1003E00009025400030100A0FA09040000010301FE
:1003F00001000921110100012240000705810308C5
:10040000000109040100010301020009211101009A
:1004100001224700070582030800010904020001C8
:1004200003000000092111010001226D000705836E
:1004300003200001120100020000000897327649F3
:1004400001000102000120034500720067006F00F7
:1004500044006F007800200045005A00200047004B
:100460006C006F007700000028035A005300410021
:10047000200054006500630068006E006F006C008F
:100480006F006700790020004C006100620073007B
:1004900000000403090400443454007464840055CB
:1004A00045650085759500362646006656760096A9
:1004B00086A60037274700776787003828480088D6
:1004C00078980039294900695979009989A9003A31
:1004D0002A4A006A5A7A003B2B4B006B5B7B004C2C
:1004E0003C5C007C6C8C005D4D6D008D7D9D003E04
:1004F0002E4E006E5E7E01443454017464840155B6
:100500004565018575950136264601665676019644
:1005100086A6013727470177678701382848018871
:1005200078980139294901695979019989A9013ACC
:100530002A4A016A5A7A013B2B4B016B5B7B014CC7
:100540003C5C017C6C8C015D4D6D018D7D9D013E9F
:100550002E4E016E5E7E00000000000000000000D4
:10056000000000000000000000000000000000008B
:10057000000000000000000000000000000000007B
:10058000000000000000000000000000000000006B
:10059000000000000000000000000000000000005B
:1005A000000000000000000000000000000000004B
:1005B000000000000000000000000000000000003B
:1005C000000000000000000000000000000000002B
:1005D000000000000000000000000000000000001B
:1005E0000000000000004AFFFF4AFFFF4AFFFF4AE9
:1005F000FFFF4AFFFF0000000000000000000000B5
:1006000000000000000000000000000000000000EA
:100610000000000000000000000000000000008357
:10062000FFFF00000000000083FFFF83FFFF4AFF81
:10063000FF4AFFFF4AFFFF4AFFFF4AFFFF0000009B
:1006400000000000000083FFFF0000000000000029
:10065000000083FFFF83FFFF83FFFF000000000017
:10066000000000000000000000000000000000008A
:1006700000000000000000000000000083FFFF8376
:10068000FFFF83FFFF0000004AFFFF4AFFFF4AFF12
:10069000FF83FFFF0000004AFFFF4AFFFF4AFFFF02
:1006A0000000000000004AFFFF4AFFFF4AFFFF0072
:1006B00000004AFFFF00000083FFFF000000000071
:1006C000000000000000000000000000000000002A
:1006D000000000000000000000000000000000001A
:1006E000000000000000000000000000000000000A
:1006F00000000000000000000000000000000000FA
:1007000000000000000000010101010101010101E0
:1007100002020202020202020203030303030303B2
:10072000030404040404040405050505050606067F
:100730000606070707070708080808090909090A3C
:100740000A0A0B0B0B0C0C0C0D0D0D0E0E0E0F0FE1
:100750000F1010111111121213131414151516166F
:100760001717181819191A1A1B1B1C1D1D1E1E1FDE
:100770002020212222232424252626272829292A2D
:100780002B2C2D2D2E2F3031323233343536373855
:10079000393A3B3C3D3E3F40414243444546474851
:1007A000494A4C4D4E4F50515354555658595A5B27
:1007B0005D5E5F616264656668696B6C6D6F7072C7
:1007C000737577787A7B7D7E8082838587888A8C33
:1007D0008E8F91939596989A9C9EA0A2A3A5A7A967
:1007E000ABADAFB1B3B5B7BABCBEC0C2C4C6C9CB5E
:1007F000CDCFD1D4D6D8DBDDDFE2E4E7E9EBEEF014
:10080000F3F5F8FAFDFF11241FBECFEFDAE0DEBFEB
:10081000CDBF12E0A0E0B1E0EEE4F4E602C0059046
:100820000D92A035B107D9F725E0A0E5B2E001C0EF
:100830001D92AD3AB207E1F70E94A9140C9425323B
:100840000C940000AAE0B0E0E8E2F4E00C94E52D9E
:10085000FC018081918123813481232B31F09F3FE2
:1008600031F491E08F3F19F403C091E001C090E0B2
:1008700090FD43C47F0185E0DE01169601900D9244
:100880008A95E1F7F70122818E819F81222349F029
:100890000E94D92A182F682F8E819F810E94492B90
:1008A00003C00E94152B182F6E817F81812F0E941B
:1008B000000F8C01F7018281033BFDE51F0759F012
:1008C000043B2DE5120709F440C0033C9CE51907E1
:1008D00009F075C05CC0882309F4AFC0909183050E
:1008E00081E0890F8770987F853020F4892B809371
:1008F000830502C090938305809183058770EFEF95
:100900008E9FC00111249595879595958795992778
:10091000909389008093880090938B0080938A0045
:1009200090938D0080938C004091830550918405B5
:1009300060918505709186058FE090E00E94C02E41
:10094000809182050E94D42174C0882309F475C067
:100950008091830583FB222720F991E0922790FB69
:1009600083F980938305992329F040E060E080E0DB
:100970000E94070940918305509184056091850587
:10098000709186058FE090E00E94C02E52C08823AF
:1009900009F461C1909103048091FD039F3F59F4D4
:1009A0001092030481608093FD0340E060E080E0EA
:1009B0000E94070950C19FEF90930304A4C0063B17
:1009C000FDE51F0799F028F4053B9DE5190751F057
:1009D00030C0073BEDE51E07A1F0083BFDE51F0712
:1009E000E9F027C0882309F436C1C0C0882309F480
:1009F00032C181E00E94D0294FEF6FEF8BED90E084
:100A00000AC0882309F427C181E00E94D0294FEF52
:100A10006FEF8AE490E00E9492171DC1882309F4C9
:100A20001AC181E00E94D0294FEF6FEF83E890E078
:100A3000F2CFF701828181119FC08091CA03827237
:100A40000B3C2CE5120709F480C098F5063CECE558
:100A50001E0709F466C0B8F4043C2CE5120709F43B
:100A600056C008F059C0033CECE51E0709F005C16B
:100A70009091FE0381E089278093FE0310921C0170
:100A80008091FD0340C0083CFCE51F0709F453C0FA
:100A900008F44CC0093C9CE5190709F451C00A3C14
:100AA000ECE51E0709F0E9C047E059E264E179E2AC
:100AB0005AC0003DFCE51F0709F45AC098F40D3CEC
:100AC0009CE5190709F44BC008F444C00E3CFCE552
:100AD0001F0709F44BC00F3C2CE5120709F0CDC0ED
:100AE00085E047C0073D8CE5180738F4023D9CE5DA
:100AF000190708F0B0C082E13CC00F35EDE51E07D4
:100B000009F4A9C0BAC081608093FD03A4C04FE47A
:100B100059E269E579E227C049E559E26FE479E2F3
:100B200022C04BE359E265E479E21DC045E459E295
:100B30006BE379E218C041E259E26EE279E213C058
:100B40004EE259E261E279E20EC044E159E267E027
:100B500079E209C049E258E267E378E204C047E37A
:100B600058E269E278E20E945E2075C081E001C02F
:100B70008DE00E94D0296FC00C35FDE51F0709F4F8
:100B800064C060F401158CE51807A9F00F3D9CE5E1
:100B9000190709F072C00E94B5104CC00E35EDE582
:100BA0001E0709F44AC008F452C0093A2DE512079D
:100BB00009F440C062C01092CA030E94DA2B8FEF82
:100BC00094E3ECE081509040E040E1F700C0000089
:100BD000F89481E08093E00080E28093D800109246
:100BE000C9008FE19EE40197F1F700C000001DBA33
:100BF000109268001CBC10BE1FBA10927A001092AE
:100C00006E0010926F00109271001092720010929C
:100C1000C9001092BC0014B817B81AB81DB810BAA1
:100C20001092BC0015B818B81BB81EB811BA0C94B5
:100C3000003F11C00E94BC210EC080916C0582FB58
:100C4000882780F991E0892703C081E001C080E016
:100C50000E94AA1112C080917003877009F44DC2DE
:100C6000F7018281882309F448C280916C0582FFD4
:100C700044C282E00E948D1140C2F701828100814E
:100C80001181882349F0C8010E94D92AD82E682FE3
:100C9000C8010E94492B04C0C8010E94152BD82E00
:100CA000B8018D2D0E94000F0E94190FB82E192F28
:100CB000982EF7010281A580A2949FE0A92280913D
:100CC00070038770B9F00023A9F0812F807F8034F2
:100CD00021F080E28B0D883068F080916C0582FFF6
:100CE00009C082E00E948D11809170038770DD241D
:100CF000D3948111D12CC12EC2948FE0C8228C2DA7
:100D000090E08C30910508F0CBC1FC01EA5AFF4F0E
:100D10000C94F130812F807F1F70882311F0129581
:100D2000107F0023B9F0112309F4A8C180E28B0DD4
:100D3000883010F0911006C08091CA03182B1093D0
:100D4000CA0305C080919103182B109391030E9450
:100D5000381194C18B2D0E94FF2B112309F4A0C1DF
:100D600080E28B0D883080F1992071F1109580918F
:100D700091031823109391032AC0812F807F1F7045
:100D8000803211F01295107F8B2D992021F0F1E027
:100D90009F16D9F147C080916C0582FD1BC00023CE
:100DA00069F0112339F08091CA03182B1093CA03FC
:100DB0000E94381180E00E94342C72C180E00E94B1
:100DC000FF2B112309F46CC1812F0E9431110E9465
:100DD000381166C1002381F080919203AA2051F05E
:100DE00021E0A21207C0182B181709F459C110935B
:100DF000920356C1812B10C0AA2021F081E0A816D1
:100E000009F44EC10E942B111FC0002341F091E054
:100E10009A1508F445C1812F0E94F52B41C1A110FC
:100E20003FC112C0002319F0AA20A9F327C1AA20AC
:100E300059F0893309F031C1EFEFF7EE23E0E150CB
:100E4000F0402040E1F727C1812F0E94EE2B28C1FE
:100E5000812F86958695837019F0813061F020C1CD
:100E6000002321F08B2D912F937002C080E090E041
:100E70000E943B201BC1002321F08B2D912F9370EA
:100E800002C080E090E00E94252010C18B2D00233D
:100E900019F00E94A72702C00E94ED260E94022896
:100EA00005C1812F8370A9F50111FEC04B2D42951C
:100EB00046954770440F440F8B2D8F7090E09C0136
:100EC000042E01C0220F0A94EAF7B4FE08C08FE096
:100ED00090E001C0880F4A95EAF7809501C080E054
:100EE000169516951370123069F088F4909193035B
:100EF000113019F0822B892302C0922B892B0E947A
:100F00009E2BD2C0822B909193038927F8CF822BFE
:100F1000F6CF002319F0812F817001C086958823B8
:100F200009F4C2C04B2D429546954770440F440FBB
:100F30008B2D8F7090E09C01042E01C0220F0A942B
:100F4000EAF7B4FE08C08FE090E001C0880F4A9530
:100F5000EAF7809501C080E016951695137012305F
:100F600059F078F490918205113019F0822B892381
:100F700009C0922B892B06C0822B9091820589276C
:100F800001C0822B0E947E2B8FC01F70002339F07E
:100F9000812F0E94922B8B2D0E94F52B85C08B2DCB
:100FA0000E94EE2B812F0E94852B7EC08B2D92EF0D
:100FB000991669F1991538F0E0EF9E1659F0F1EFA6
:100FC0009F1601F157C023EF921641F194EF991645
:100FD000A9F050C0002369F0A11062C01F7181E028
:100FE00090E001C0880F1A95EAF790918205892751
:100FF0001FC0E1E0EA1508F453C0F0CF80916C0502
:1010000082FD19C0002329F0812F8F7126C0002393
:10101000D9F3812F8F710E94852B42C0002339F0B4
:101020001F7181E001C0880F1A95EAF701C080E0C6
:101030000E947E2B35C0002399F01F71812F0E94E2
:10104000922B80916C0582FF07C0F8E01F9FC001C2
:101050001124836080937003812F0E94922B20C003
:1010600081E00E948D1121E02A15D0F482E00E94D7
:101070008D1116C0002321F0AA2031F28B2D9BCEBA
:10108000AA2039F2893349F48FEF97EEE3E08150DB
:101090009040E040E1F700C000008B2D0E94FF2B44
:1010A00088EF8C0D843010F40E945120DD20A9F0CF
:1010B0008091700380FD11C0F7011282859585959E
:1010C00085950E94922BC7010E9422048091700393
:1010D0008595859585950E94852B85E0F701DE0134
:1010E000119601900D928A95E1F709811A81C80144
:1010F0000E94152BB8010E94000F2A96EBE00C9479
:10110000012EE42FF0E0EE0FFF1FE854FE4F908118
:10111000921B97FD9195292F38E1239F212D1124B2
:10112000620F08950F931F9310E0F801EE0FFF1F59
:10113000E854FE4F9081905797FD9195000F111F35
:10114000F801E754FE4FE081F0E0B097DF01AA0F0D
:10115000BB1F8D010E0F1F1F2003D001219FB00D5B
:101160001124E8E3F0E0E91BF10997FDF3959F01F5
:10117000220F331F89010E0F1F1F40039001419F53
:10118000300D11242A0F3B1F37FF02C021583F4F5B
:10119000220F232F221F330B620F1F910F910895EF
:1011A0002091020430E1230F08F42FEF60E1822F39
:1011B00090E00E945926BC0188EB9BE00E94CA2D5A
:1011C00080E090E008950F931F93CF93DF93D62F85
:1011D000072F182FC42F822F0E94C925EC2FF0E073
:1011E000EE0FFF1FE854FE4F90819058890F87FD46
:1011F0008195880F682F2CE0629F612D11246D0F5F
:10120000702F812FDF91CF911F910F9108950E9430
:10121000F41C08950E94B61C0895A4E0B0E0E3E138
:10122000F9E00C94DF2D782E8091200187110DC0FC
:101230002091FE03237030E040911F0150E081E0D7
:101240002417350719F480E001C081E08170809394
:101250001B018091030490911A01981739F0809333
:101260001A0140E060E080E00E940709EFE07E1292
:101270005DC089E794E20E94BB178A8342C0F715DC
:1012800008F49AC123E0721609F459C0271508F42E
:10129000F7C031E0731609F497C0371508F0B6C0EF
:1012A00080911901382F330F330F380F398375E0D0
:1012B000F72EF30E80E38F1510F460E3F62E1091F5
:1012C0000004909101049A830091FF03B801892FD3
:1012D0000E946326E62ED72EC82E60910204600F6E
:1012E000712F8A810E9463266A83172F082F298114
:1012F0002F1508F4ABC031E03A838FE28F1508F464
:101300008EC0809119018F5F809319019A8191118C
:1013100013C582E080931C0180911B0181110CC5D3
:1013200071100AC583E080931C0106C5E71508F417
:101330006BC1F7E07F12A3CF88EA94E29CCF809143
:101340001901982F990F990F980F99839B5F9B8391
:10135000913310F0E0E3EB83E0900004D0900104BF
:101360002091020450E4F52E3F2D329F312D11249F
:10137000F32EE981FB81EF1708F042C08981082F25
:1013800010E0F801E85EFD4F908180911A018923F9
:10139000B9F0F801EE0FFF1FE754FE4F80818295F0
:1013A0008F706091FF038F9D600D11247E2D8D2D18
:1013B0000E946326462F282F672FC8010E940A0922
:1013C00099819F5F9983D5CF80911901282F220F92
:1013D000220F280F29832B5F2B83213310F030E35A
:1013E0003B836091FF0370910004809101040E948F
:1013F0006326162F072FF82EE981FB81EF1788F05F
:1014000021E02A83F03308F47CCF09C080911B01CE
:10141000882329F040E060E080E00E9407091A82FA
:1014200070CF8981E82FF0E0DF01A85EBD4F8C917D
:1014300090911A01982331F02F2D412F602FCF0169
:101440000E940A0999819F5F9983D6CFE9818E2FE7
:1014500090E0FC01E85EFD4F308120911A012323CA
:1014600059F030FF04C0202F4A81612F03C02C2D7A
:101470004E2D6D2D0E940A09F981FF5FF98337CF48
:1014800085E078124AC080911901382F330F330F4D
:10149000380F39833B5F3B83313310F080E38B831C
:1014A0000091FF0310910004F09001046091020488
:1014B0006695669566958091F9039091FA030E946E
:1014C00059260E94C925805887FD8195880F282FAD
:1014D0003F2D239F212D1124822FB8010E946326C6
:1014E000162F072FF82EE981FB81EF1708F088CF20
:1014F0008981E82FF0E0DF01A85EBD4F8C919091CB
:101500001A01982331F02F2D412F602FCF010E9417
:101510000A0999819F5F9983E6CF871508F449C02E
:1015200080911901382F330F330F380F39833B5F08
:101530003B83313310F080E38B83E0900004D09044
:1015400001042091020430E4F32E3F2D329F312D0F
:101550001124F32EE981FB81EF1708F051CF898127
:10156000082F10E0F801E85EFD4F908180911A018C
:101570008923D9F0F801EE0FFF1FE854FE4F608178
:10158000F69EB001112425E0759567952A95E1F73F
:101590008091FF03680F7E2D8D2D0E946326462FBC
:1015A000282F672FC8010E940A0999819F5F99839C
:1015B000D1CF84ED94E25FCE9BE0791208C087E53D
:1015C00095E202C083E795E20E945A1856CE97151D
:1015D00068F0E9E07E1205C08EE895E20E94D61818
:1015E0004CCEE71578F38CEA95E2F8CFFDE07F1258
:1015F00003C08DE994E23FCEF71518F086EA94E235
:101600003ACE84E994E237CE27E172124FC080913E
:101610001901382F330F330F380F3983132F1B5F06
:10162000113308F010E380911B0181111EC06091FD
:10163000020420E1620F08F46FEF8091F9039091AA
:10164000FA030E9459266AE070E00E94CA2D892B95
:1016500021F50E94EA2560E30E94D13060911A01D1
:10166000892F90E00E94952918C09981892F90E0D8
:101670009C838B83E12EF12C2B813C812E153F0521
:1016800064F460911A018B819C810E949529EB8101
:10169000FC813196FC83EB83EFCF31E03A8302C0CB
:1016A00091E09A83103308F42CCEB9CE271530F18F
:1016B00033E1731203C082E395E286CF371570F0F1
:1016C00081E1781203C080E396E288CF871518F095
:1016D0008AE694E279CF86E495E280CF95E17912AB
:1016E00003C08AE094E204C0971528F08CE394E2EA
:1016F0000E940518C2CD82E998E0FACFEBE17E1294
:1017000003C081E898E0B7CDE71508F4A1C0F9E17E
:101710007F1250C080911901E82FEE0FEE0FE80FF5
:10172000E983EB5FEB83E13310F0F0E3FB8300919F
:10173000000410910104F090FF036091020466958B
:10174000669566958091F9039091FA030E94592657
:101750000E94C925805887FD8195880F682F2CE04D
:10176000629F612D11246F0D702F812F0E946326BF
:10177000162F072FF82E89819B818917A8F42981BC
:10178000E22FF0E0DF01A85EBD4F8C9190911A012D
:10179000982331F02F2D412F602FCF010E940A098D
:1017A00039813F5F3983E7CFE1E0EA83903308F482
:1017B000A8CD35CEF71508F448C080911B018111E2
:1017C0001EC06091020420E1620F08F46FEF809167
:1017D000F9039091FA030E94592665E070E00E9497
:1017E000CA2D892B09F01BCE0E94612E60E370E0A8
:1017F0000E94DD3060911A010E94712910CE809103
:101800001901982F990F990F980F9983192F1B5F22
:10181000113308F010E3F981EF2FF0E0FC83EB8344
:10182000E12EF12C8B819C818E159F050CF038CF19
:1018300060911A018B819C810E9471292B813C81CE
:101840002F5F3F4F3C832B83EDCF83EE98E013CD8A
:101850002DE17212F0C04091E6025091E7026091D2
:10186000E8027091E9028091F9039091FA03A09146
:10187000FB03B091FC0384179507A607B70708F48C
:10188000CECD80911B0181110EC080911901982F3E
:10189000990F990F980F9983092F0B5F013308F463
:1018A0005CC000E35AC040E060E080E00E940709AD
:1018B00006E512E01C821B828FE7D82E0E94EA25E3
:1018C00081FF05C0F80110821182128220C00E949F
:1018D000EA25C82E0E94EA258695782F2D2D720FB5
:1018E00008F47FEF8B819C81880F991FEB81FC812D
:1018F0008E0F9F1F9C012A5A3D4F79016C2D8091BC
:1019000001040E946326F7016083718382832B8127
:101910003C812F5F3F4F3C832B830D5F1F4F203354
:10192000310561F6B2CF3981832F90E0FC01E85E8A
:10193000FD4F308120911A01232361F0FC01EE0F4D
:10194000FF1FE80FF91FEA5AFD4F22814081618194
:101950000E940A0989818F5F89839981901718F302
:10196000E1E0EA83003308F01A82003308F4C9CCBE
:1019700020E010E001501109822F90E080179107BC
:10198000CCF4AC01440F551F480F591F4A5A5D4F04
:101990000196FC01EE0FFF1F8E0F9F1FFC01EA5AFC
:1019A000FD4F80819181A281FA0180839183A2837E
:1019B0002F5FE2CF0E94EA257801EE0CFF1C81FF29
:1019C00009C00E0D1F1DF801EA5AFD4F1082118249
:1019D000128218C00E94EA2589830E94EA25869512
:1019E000782F2FE7720F08F47FEF0E0D1F1D0A5A94
:1019F0001D4F6981809101040E946326F801608374
:101A0000718382830E94D0080091F9031091FA0338
:101A10002091FB033091FC03DC01CB01800F911F6F
:101A2000A21FB31F8093E6029093E702A093E802FF
:101A3000B093E90266CC721608F07AC08091190161
:101A4000982F990F990F890F8B5F8B834091F90322
:101A50005091FA036091FB037091FC038091520254
:101A600090915302A0915402B091550284179507AA
:101A7000A607B70708F055C00E94EA2589830E948F
:101A8000EA2590E3891BF0F7890F082F10E0F80191
:101A9000E85EFD4F80911A019081982309F441C0BE
:101AA000F981F1FF04C020E040E060E013C00E9433
:101AB000EA2589830E94EA258695782F2FE7720F01
:101AC00008F47FEF6981809101040E946326462F0C
:101AD000282F672FC8010E940A092091020430E1D3
:101AE000230F08F42FEF60E1822F90E00E94592627
:101AF000BC0184EF91E00E94CA2D8091F90390917E
:101B0000FA03A091FB03B091FC03860F971FA11D60
:101B1000B11D8093520290935302A0935402B0934C
:101B2000550221E02A833B81303308F4EACB77CC9D
:101B30003EE17312C7C080911B01882329F040E069
:101B400060E080E00E94070980911901982F990FA9
:101B5000990F890F8B5F89834091F9035091FA03A4
:101B60006091FB037091FC03809114039091150325
:101B7000A0911603B091170384179507A607B7071E
:101B800008F099C06091FF037091000480910104F6
:101B90000E946326662E572E482E0AEE12E024E697
:101BA00031E03C832B8348EB842E41E0942EAB80C4
:101BB000BC806501780132E0332EF7018081F601A7
:101BC000882369F08081242D462D652D90E00E94A8
:101BD0000A09F5018581242D462D652D0CC08081D3
:101BE00020E040E060E090E00E940A09F501858174
:101BF00020E040E060E090E00E940A09F701818166
:101C000081937F013A94FFEFCF1ADF0A21E0A21AF5
:101C1000B1083110D2CFF8018281EB81FC81882399
:101C200071F08281242D462D652D90E00E940A09D5
:101C3000EB81FC818381242D462D652D0DC0828191
:101C400020E040E060E090E00E940A09EB81FC8126
:101C5000838120E040E060E090E00E940A090E9459
:101C6000EA25837091E009F090E0F80192830D5F1E
:101C70001F4F2B813C812A5F3F4F3C832B83821671
:101C8000930609F094CF0E94D0080091F9031091B7
:101C9000FA032091FB033091FC03DC01CB01800FA0
:101CA000911FA21FB31F8093140390931503A09359
:101CB0001603B093170331E03A838981803308F427
:101CC00020CBADCB8FEF781231C08091F90390918A
:101CD000FA03A091FB03B091FC0388279C70AA270C
:101CE000BB272AE0B695A795979587952A95D1F7B2
:101CF00082309105A105B10571F083309105A105F0
:101D0000B10569F040E00197A105B10511F060E06F
:101D100008C064E102C044E160E080E003C044E147
:101D200064E184E10E94070982E0FDCA8091190103
:101D30008F5F80931901EDCA2496E1E10C94FB2D8D
:101D4000EEEFF3E085E38083809121019091220101
:101D5000A091230181839283A3838CE384838FEFFB
:101D6000858346E050E06CE170E0CF010E949E2E3A
:101D70001092FD03089580E0089590916B0592FF05
:101D80000DC0282F2871283019F4877F846006C081
:101D9000282F2471243011F48B7F886093FF0DC0AD
:101DA000282F2871283119F4877E846106C0282FD6
:101DB0002471243111F48B7E886120916C0520FF01
:101DC0000DC0382F3871383019F4877F816006C014
:101DD000382F3171313011F48E7F886021FF0DC0B2
:101DE000282F2871283119F4877E816106C0282F99
:101DF0002171213111F48E7E886194FD877E0895D2
:101E00007E30A0F4663090F494E5899FF0011124AF
:101E100086E0789FE00DF11D1124E60FF11DEE0F15
:101E2000FF1FEC50FF4F85919491089580E090E062
:101E30000895CF93DF938238910569F1B0F481332F
:101E4000910509F477C048F48932910509F469C015
:101E50008A32910509F473C092C08533910509F463
:101E60005BC089339105B9F08AC0833E910591F139
:101E700038F4803E9105D1F0823E910531F17FC06A
:101E8000863E9105D9F1873E9105E9F1843E9105A1
:101E900009F075C028C020916B0520FD5BC021FDB5
:101EA00059C020916C0523FD61C069C080916B050C
:101EB00080FD4AC080916C0580FF4CC080916B050D
:101EC00084FD4EC183EE90E04DC180916B0582FF91
:101ED0003EC0F4CF80916B0582FD39C080916C05C6
:101EE00080FD38C0EBCF80916C0581FF39C08091B7
:101EF0006B0584FD35C187EE90E034C180916B05A0
:101F000083FF2BC0F4CF80916B0583FD26C08091A9
:101F10006C0581FD25C0EBCF80916B0585FD26C04A
:101F200022C080916B0585FD1EC080916C0583FFEA
:101F30001DC00AC080916B0586FD1BC01DC080912D
:101F40006B0586FD19C015C089E390E00BC182EED8
:101F500090E008C180EE90E005C186EE90E002C1FD
:101F600084EE90E0FFC085E390E0FCC089E290E061
:101F7000F9C08AE290E0F6C081E390E0F3C08115F9
:101F800031E5930708F061C0811520E59207B0F0B4
:101F90009C012370332741E050E002C0440F551FDD
:101FA0002A95E2F7282F2695269580E2289F900112
:101FB0001124CA01822B932B9D68D4C0883E9105C1
:101FC00068F5803E910508F0CDC0883A9105B8F4D7
:101FD000853A910548F0855AE82FF0E0EC5DFE4F18
:101FE000808190E09064BEC08130910509F4B5C055
:101FF00008F4B6C08430910508F4B2C0B3C08F3B7A
:10200000910508F0ADC0885AE82FF0E0EE0FFF1FF1
:10201000E95DFE4F808191819464A4C0811530E216
:10202000930758F4811521E0920708F09BC08D3E7C
:10203000910508F495C0906595C0811530E493072B
:1020400008F48EC09F70906A8DC0811525E59207B7
:1020500008F042C0811534E5930728F0982F8827AF
:10206000846F906A7FC0811523E59207B0F09C01D0
:102070002370332741E050E002C0440F551F2A95DA
:10208000E2F7282F2695269580E2289F90011124BB
:10209000CA01822B932B9A6865C0811532E593079C
:1020A00028F4982F8827816F906A5CC09C01237068
:1020B000332741E050E002C0440F551F2A95E2F754
:1020C000282F2695269580E2289F90011124CA0189
:1020D000822B932B9C6846C0EC01C11589E5D8077B
:1020E000B0F4C11528E5D20728F09C2F8827806F0F
:1020F000906A38C0C11536E5D30790F58C2F0E9441
:10210000BD0E8F7190E0982F882790622BC0C1156B
:102110008AE5D80790F48C2F8F700E94BD0E94E052
:10212000D695C7959A95E1F7CF70D0E0DC2FCC27F4
:10213000D0699E01282BC90115C0CE01905681158A
:10214000904270F48D2F8F710E94BD0E282F2F7139
:10215000CE0199279062922B05C081E090E002C0E9
:1021600080E090E0DF91CF91089568EE7EEF80E00F
:1021700090E00E94CC2E60E082E090E00E94AE2EC3
:1021800060E083E090E00E94AE2E1092930360E046
:1021900084E090E00E94AE2E64E082E290E00E9433
:1021A000AE2E60E085E090E00E94AE2E60E086E01A
:1021B00090E00E94AE2E6FEF87E090E00E94AE2E7E
:1021C00040E050E0BA0188E090E00E94C02E60E05C
:1021D0008DE090E00E94AE2E40E050E0BA0188E130
:1021E00090E00E94C02E60E087E190E00E94AE2E59
:1021F00040E050E0BA018CE190E00E94C02E60E027
:1022000070E080E290E00E94CC2E40E050E0BA0105
:1022100088E190E00E94C02E109283051092840500
:10222000109285051092860584E080938305409185
:1022300083055091840560918505709186058FE036
:1022400090E00E94C02E40E050E0BA0183E190E0AF
:102250000E94C02E089580919203811110929203E2
:10226000089580959091CA0389238093CA030895A5
:102270009091CA0380919103982B909318038091B9
:1022800092038823D9F0892B809318038091180139
:10229000882331F080916B0587FF02C08EE101C079
:1022A00086E0EAE1F3E090E0815028F021912223DA
:1022B000D9F39F5FF9CF91110E942B1140E250E0BA
:1022C00061E773E088E193E00E941832892B21F1E5
:1022D00080E2E8E1F3E0A1E7B3E001900D928A9596
:1022E000E1F7E0916205F09163053097A9F08091E4
:1022F0001801882359F080916B0587FF07C08091F2
:1023000018038093190386E0809318030280F381F9
:10231000E02D88E193E00995089520917003809560
:10232000822380937003982F977099F430E0482FA0
:10233000082E000C550B2417350759F090916C05A9
:1023400092FF07C08595859585950E94852B1092F3
:1023500070030895CF93C0916C05C2FB992790F943
:10236000981791F080FBC2F9C0936C0560916B05E2
:1023700084E090E00E94AE2E6C2F82E290E00E94FA
:10238000AE2E82E00E948D11CF91089580916F034F
:1023900090913E03891719F08F5F8770FBCF0895E6
:1023A0000F931F93CF93DF9380913D0382958F709E
:1023B00009F05AC080913A03882309F455C08091EE
:1023C0006F0310913E036091380370913903C091FF
:1023D0003B03D0913C0391E06F3F09F090E0292F3F
:1023E00006E0811709F440C0209721F07F3F21F0DB
:1023F00030E003C031E001C0322F90E030FD31C049
:10240000089FF001099FF00D1124DF01A15CBC4F72
:1024100011963C911197371324C03C91361321C07B
:1024200012963C91129731111CC013964D915C91FC
:1024300014974C1B5D0B483C510598F480913D036B
:102440008F70806180933D03EC5BFC4F80818F70C7
:102450008061808388E393E00E9422040E94C61179
:1024600003C001968770BDCFDF91CF911F910F916F
:102470000895A1E1B0E0EFE3F2E10C94E52D8C01C9
:1024800085E0F801DE011D9601900D928A95E1F735
:10249000F801E280909138036091390340913B0349
:1024A00050913C034115510531F06F3F31F481E00B
:1024B0009F3F19F403C081E001C080E0F82FF17064
:1024C0009F2E80FD1BC1F80130812181C380D48003
:1024D00088E3A82E83E0B82EF0903A03F601E41BBF
:1024E000F50BFF2009F4C7C080913D03E83CF105DE
:1024F00008F092C0482F407F09F051C0621311C00C
:1025000093130FC0FE2CE1100CC08F70806180937C
:102510003D03C5010E94220480913D03F80185839B
:102520002AC1C114D10431F02F3F31F481E03F3F83
:1025300019F403C081E001C080E080FD03C081E0A8
:102540008E2502C080E090E0F82FF170FF2E80FF12
:102550001CC080916F0340913E0356E0841709F43C
:10256000E8C090E0589FF001599FF00D1124E15C04
:10257000FC4F6181261306C06081631303C0628132
:10258000E61203C001968770E9CFFE2CEE2009F415
:10259000F2C080913D03816080933D0349C0621386
:1025A00006C0931304C0E11002C0F80186C0C80140
:1025B0000E94A32B882351F1EE2041F120913D038D
:1025C000822F82958F7090E0029774F0809138038B
:1025D0009091390398878F831986DB86CA862C876A
:1025E000CE0107960E94220486E0F801A8E3B3E03A
:1025F00001900D928A95E1F70E94D0110AC06217EE
:10260000C9F0C8010E94A32B81111EC0C8010E94FD
:102610002204FF24F394AFC0482F407F81F788E362
:1026200093E00E94220486E0F50111928A95E9F771
:10263000F12CA1C09313E5CFE110E3CFF80185831E
:10264000C8010E94220454C0EE2001F320913D03F2
:10265000822F82958F7090E0029734F28091380338
:10266000909139039A8389831B82DD82CC822E83E9
:10267000CE010196B7CFE83CF105D0F5FE2CEE2057
:1026800029F2621327C0931325C020913D0320FD3A
:1026900018C0822F82958F70482F50E04115510548
:1026A00081F0F80125834F30510541F08F5F982F5D
:1026B0009295907F822F8F70892B8583C8010E940D
:1026C000220486E0F801A8E3B3E001900D928A9518
:1026D000E1F751C0C8010E94A32B811185CF8091E1
:1026E0003D03816080933D03C8010E94220443C0E2
:1026F00086E0F50111928A95E9F73DC0EE2009F4D4
:1027000085CFC8010E94A32BF82E882309F47ECF21
:1027100086E0F801A8E3B3E001900D928A95E1F715
:1027200080913803909139030E94082B0E94D011A8
:1027300022C03D872E878D859E850E94082B292FDC
:1027400022952F70223028F49F7039F0811105C036
:102750000BC0243028F49F7049F4805E883020F04C
:10276000C8010E9422049F2CF92C05C0F801958114
:10277000907F99F7F9CF8F2D6196EBE00C94012EA5
:10278000A0E0B0E0E6ECF3E10C94E82D80911601B6
:1027900090911701892BA1F0809194038F5F809312
:1027A000940381110DC00E947C2290E09093170148
:1027B00080931601892B21F40E94F3220E94E029C4
:1027C0000CE913E07801D0E0C0E087E0C82ECC0E21
:1027D0008C2F0E9463238C2D0E9463238C2F0E94D8
:1027E000C6238F73F7019081891721F08083DD2440
:1027F000D39401C0D12C8C2D0E94C6238F73F70176
:102800009781891719F0878381E001C080E0D82A79
:10281000DD290E94B723CF5FFFEFEF1AFF0AC73011
:10282000A1F610929903C0919803CC2309F487C0B4
:102830000E94C81F2091960330919703AC01421B60
:10284000530B9A0190939703809396034F3F510542
:1028500009F018F4452B19F102C02FEF30E0109267
:10286000980310929503E0919A03F0919B03AF01B6
:10287000425F5F4F90E030E08081882341F028176D
:1028800018F010829C2F03C0821B80833C2F31964E
:10289000E417F50789F73093980390939503DD23A8
:1028A00009F43FC0E0919A03F0919B038091990352
:1028B00090919803ACEAB3E0AF01425F5F4F66E0EE
:1028C000E80128813C91321779F0308131110CC038
:1028D00060832C9398819227282F30E0292B81E068
:1028E000232B09F480E091E0319611960F5F1F4F82
:1028F000E417F50729F78093990390939803C09103
:1029000099030E94512081FF03C0279A2F9A1BC070
:10291000809182050E94A8218330A9F027982F98E2
:1029200012C081E090919503992349F38111BACFA8
:102930000E94C81F9093970380939603B3CFD11141
:10294000F7CF80E0EFCF8C2FCDB7DEB7E8E00C9467
:10295000042EAFE0B0E0EFEAF4E10C94E02D85B78F
:10296000806885BF85B7806885BF84B7877F84BF4F
:102970000FB6F894A89580916000886180936000FC
:10298000109260000FBE90E080E80FB6F89480933C
:102990006100909361000FBE8BEB9EE0909351021B
:1029A000809350020E94511D0E94F71D8091E20009
:1029B00084608093E20078948091EF038823A1F0F3
:1029C0001091E9001F709091EC00892F817090FDAB
:1029D00080E8182B1092E9008091E80083FD0E94A6
:1029E00056191F701093E90082E084BD93E095BDF5
:1029F0009AEF97BD80936E000E947C2290E09093A6
:102A00001701809316010E94B7230E94FD23ECE971
:102A1000F3E0ACEAB3E011921D9223E0EA3AF20748
:102A2000D1F78EE090E00E94F73080939A03909364
:102A30009B03FC010E9611928E179F07E1F789EA1E
:102A40008093800089E08093810024982C983F989F
:102A50008AB18F7C8AB96E98479A8BB180638BB9A3
:102A6000769A8FE090E00E94922E60938305709397
:102A70008405809385059093860567703FEF639F7B
:102A8000B0011124759567957595679577277093B3
:102A900089006093880070938B0060938A00709324
:102AA0008D0060938C000E94F32280E090E00E94F1
:102AB000982E883E9E4F11F00E94B51082E090E063
:102AC0000E948A2E8093BA0384E090E00E948A2EAE
:102AD000182F82E290E00E948A2E212F30E0382BBE
:102AE00030936C0520936B0583E090E00E948A2E62
:102AF0000E949E2B809182050E94D4210E94E02991
:102B00000E94D3290E94D3298091FD038160809384
:102B1000FD038AE091E0909363058093620508E1EC
:102B200010E050E4E52EFF24F394DD24D39480914B
:102B3000EF03853009F071C023E0A22E30E1B32EFF
:102B400042E1C42E8091EF03853009F05EC0809190
:102B5000EF03843009F436C00E94FE298091870576
:102B600081110DC00E940D09109220018091FE0379
:102B7000837080931F010E944528A0921C01D0926F
:102B80008705109266050FB6F894A895009360002B
:102B90000FBEE092600083B7817F846083BF83B7FC
:102BA000816083BF7894889583B78E7F83BF0FB68B
:102BB000F894A895809160008861809360001092DD
:102BC00060000FBE8091EE03882309F4BBCF0E9402
:102BD0007C2290E090931701809316010E94B72306
:102BE0000E94FD23ECEAF3E0119283E0EA3BF80750
:102BF000D9F70E94C013ECEAF3E08191811171C111
:102C000023E0EA3BF207C9F79DCF1092CA030E9466
:102C1000DA2B0E945120109287050E94C0139BEB73
:102C2000A92E93E0B92E29EC33E0ACEAB3E0F5012C
:102C300091918D9189272E173F0719F08823C1F3B1
:102C400022C0811120C00E94C81F5C018091AA038C
:102C50009091AB03A816B90609F44BC08FEF8E8391
:102C60008F8318860E94C81F8160782F9A87898772
:102C70004E815F8168858A850E940921B092AB03ED
:102C8000A092AA0336C08CEA882E83E0982EC12C2D
:102C9000F40141904F01F5015080542409F1712C49
:102CA00066246394852D8621A1F07B86CC8691E0F5
:102CB000842D862109F490E09D870E94C81F8160C1
:102CC000782F9F878E874B855C856D858F850E94C9
:102CD00009217394660CF6E07F12E4CFF50140827F
:102CE000C394FFEFAF1ABF0A2EE0C212D1CF0E94E9
:102CF000BC1F0E94FE2985E0E9E7F5E0DE011196A0
:102D000001900D928A95E1F710927A0510927B0559
:102D100010927C0510927D05CA80C11004C08B8181
:102D2000882309F450C080917705909178050E941E
:102D3000AD1F9C0190917305992309F4EAC02531D8
:102D4000310508F440C09F3F19F09F5F90937305D1
:102D5000CC2061F00E9484271C1414F491E001C07F
:102D60009FEF899F802D112480937A05CB80CC2002
:102D700061F00E9484271C1414F491E001C09FEFBD
:102D8000899F802D112480937B0530917A05332310
:102D9000D1F020917B052223B1F045EB3403C00133
:102DA0001124992319F090937A0502C0F0927A05C4
:102DB00035EB2303C0011124992319F090937B056F
:102DC00002C0F0927B05CC80C11004C08D818823A5
:102DD00009F450C080917505909176050E94AD1F51
:102DE0009C0190917205992309F497C02531310512
:102DF00008F440C09F3F19F09F5F90937205CC206C
:102E000061F00E9464271C1414F491E001C09FEF4C
:102E1000899F802D112480937C05CD80CC2061F08A
:102E20000E9464271C1414F491E001C09FEF899F55
:102E3000802D112480937D0530917C053323D1F0C2
:102E400020917D052223B1F045EB3403C00111240C
:102E5000992319F090937C0502C0F0927C0535EB24
:102E60002303C0011124992319F090937D0502C01A
:102E7000F0927D0545E050E0BE016F5F7F4F89E72E
:102E800095E00E941832892BA9F480917A0581116E
:102E90000FC080917B0581110BC080917C05811151
:102EA00007C081E090917D05911103C080E001C0D1
:102EB00081E080FD0E94022885E0FE013196A9E7AD
:102EC000B5E001900D928A95E1F70E945120909112
:102ED000C903891709F42BCE8093C9030E94BC1F34
:102EE00026CEB9BCC9BC09B400FEFDCF8091D80084
:102EF0008F7D8093D8008091E00082608093E00015
:102F00008091E00081FDFCCF1092CA030E94DA2B71
:102F100019CE232B09F019CF56CF2139314008F0B3
:102F20006BCFA8CF9091FE03937059F08093FF036D
:102F300060930004409301048091FD0381608093BD
:102F4000FD0308959091FE039370A1F0811102C0DA
:102F5000946007C08F3110F0986703C0880F880F06
:102F6000982B9093FE0310921C018091FD038160C9
:102F70008093FD030895A0E0B0E0E1ECF7E10C944C
:102F8000E92D8C0180911901C82FCC0FCC0FC80FEF
:102F9000D5E0DC0FD13308F0D0E3609102046695F0
:102FA000669521E0620F08F46FEF8091F90390912C
:102FB000FA030E945926D82ECD17F0F4EC2EF12CEE
:102FC000F701E85EFD4F908180911A01892391F00D
:102FD0006091FF0370910004809101042D2D4C2F0E
:102FE000F80109950E946326462F282F672FC701F5
:102FF0000E940A09CF5FE0CF81E0D03308F080E083
:10300000CDB7DEB7E7E00C94052EA0E0B0E0EBE032
:10301000F8E10C94E52D6C0180911901C82FCC0FBB
:10302000CC0FC80F15E01C0F113308F010E36091AE
:103030000204669566958091F9039091FA030E94C7
:103040005926D82F80E48D0F0E94C92590E8F92ECB
:10305000F80E8D2F0E94C92520E8922E980EC117D8
:1030600000F5AC2EB12CF501E85EFD4F908180910A
:103070001A018923A1F06091FF03709100048091EF
:103080000104ED2E0C2F292D4F2DF60109950E94DC
:103090006326462F282F672FC5010E940A09CF5F9C
:1030A000DECF81E0103308F080E0CDB7DEB7EBE093
:1030B0000C94012E6F927F928F929F92AF92BF924B
:1030C000CF92DF92EF920F931F93CF93DF933C0148
:1030D00080911901C82FCC0FCC0FC80FD5E0DC0FA1
:1030E000D13308F0D0E36091020466958091F90332
:1030F0009091FA030E945926182FCD1708F044C06A
:103100008C2E912CF401E85EFD4F908180911A0184
:103110008923C1F1F401EE0FFF1FE854FE4FC08078
:10312000D12C80E7C81AD108F401EE0FFF1FE75435
:10313000FE4FA080B12CE0E2AE1AB108CC9C900109
:10314000CD9C300D300D1124AA9CC001AB9C900D7C
:10315000900D1124820F931F0E94FF25082F60916C
:10316000FF037091000480910104E12E9501A601F6
:10317000F30109950E946326462F282F672FC4016B
:103180000E940A09CF5FB9CF81E0D03308F080E018
:10319000DF91CF911F910F91EF90DF90CF90BF9073
:1031A000AF909F908F907F906F900895A0E0B0E0D7
:1031B000ECEDF8E10C94E82D6C0180911901C82F19
:1031C000CC0FCC0FC80FD5E0DC0FD13308F0D0E323
:1031D0006091020466958091F9039091FA030E9430
:1031E0005926182FCD1778F5EC2EF12CF701E85E53
:1031F000FD4F908180911A01892319F1F701EE0F9B
:10320000FF1FE754FE4F208130E020523109F701C3
:10321000EE0FFF1FE854FE4F408150E04057510928
:103220006091FF037091000480910104012FF60169
:1032300009950E946326462F282F672FC7010E94F9
:103240000A09CF5FCFCF81E0D03308F080E0CDB75F
:10325000DEB7E8E00C94042EEF92FF920F931F93D9
:10326000CF93DF937C018B010E94701D811119C0E7
:10327000E70101151105A1F08091E80085FD0AC064
:103280008091E8008E778093E8000E94701D88236B
:1032900081F307C089918093F10001501109E9CFB2
:1032A00080E0CDB7DEB7E6E00C94062EAAE2B0E0EF
:1032B000ECE5F9E10C94ED2DE1EFF3E089EF93E01B
:1032C0002091F10021938E179F07D1F78091F2038F
:1032D000833009F463C030F4813071F0823009F436
:1032E0009FC0B6C08A3009F48BC08B3009F46EC021
:1032F000893009F0ADC020C08091F103813A09F016
:10330000A7C08091E800877F8093E8008091F50353
:103310009091F603892B21F460E28DEC93E003C0D9
:1033200060E080E090E070E00E94291F8091E8005A
:103330008B778093E8008CC08091F103813209F093
:1033400087C08091F5039091F603009719F00297DA
:1033500009F07EC08091E800877F8093E80080912B
:10336000E80082FD05C08091EF038111F8CF70C0A5
:103370002091F3008091F20090E0922B029731F4BB
:103380008091F100813011F0863021F48091F100BC
:103390008093CC038091E8008B7756C08091F10335
:1033A000813A09F055C08091F5039091F603892B7D
:1033B00009F04EC08091E800877F8093E8008091FB
:1033C000E80080FFFCCF8091180139C08091F103A3
:1033D0008132F1F58091F5039091F603892BC1F5C7
:1033E0008091E800877F8093E8000E94A31D809170
:1033F000F303809318011092CA030E94DA2B28C0AD
:103400008091F103813221F58091E800877F8093DC
:10341000E8000E94A31D8091F4038093CB0318C0A1
:103420008091F103813AA1F48091E800877F809335
:10343000E8008091E80080FFFCCF8091CB0380936F
:10344000F1008091E8008E778093E8000E94A31D30
:103450008091E80083FFD9C18091F1039091F2033C
:10346000492F50E04A30510508F0CFC1FA01EE591A
:10347000FF4F0C94F130803821F0823809F0C5C13B
:1034800008C08091ED039091EE03992389F082604A
:103490000FC08091F5038F70873008F0B6C180931C
:1034A000E9008091EB0085FB882780F91092E90004
:1034B0009091E800977F9093E8008093F10010923C
:1034C000F1006FC1282F2D7F09F09FC1882319F0CB
:1034D000823061F09AC18091F303813009F095C187
:1034E000933009F080E08093EE032EC08091F303C7
:1034F00081112AC08091F5038F702FEF280F26309D
:1035000008F083C18093E9002091EB0020FF1CC0EC
:10351000933021F48091EB00806214C09091EB0015
:1035200090619093EB0021E030E0A90102C0440FCC
:10353000551F8A95E2F74093EA001092EA008091C5
:10354000EB0088608093EB001092E9008091E80026
:10355000877F8093E8000E94A31D57C1811155C148
:103560001091F3031F778091E3008078812B809383
:10357000E3008091E800877F8093E8000E94A31D0C
:103580008091E80080FFFCCF8091E3008068809309
:10359000E300111102C082E001C083E08093EF03D9
:1035A00034C18058823008F030C12091F30330914B
:1035B000F4032C3D53E0350779F583E08A838AE2F2
:1035C00089834FB7F894DE01139620E03EE051E284
:1035D000E32FF0E050935700E49120FF03C0E29501
:1035E000EF703F5FEF708E2F90E0EA3010F0C796DB
:1035F00001C0C0968D939D932F5F243149F74FBF33
:103600008091E800877F8093E8006AE270E0CE0155
:1036100001960E94291FB4C08091F5039091F60392
:10362000432F552743305105A9F068F44130510527
:1036300009F4FAC04230510509F0E7C084E590E092
:10364000E0EEF3E04BC04132510529F14232510521
:1036500089F1DBC0C901992781309105A1F058F0AB
:10366000029709F0D2C0E6E4F4E0E4918E2F90E0F6
:10367000E6E4F4E030C0E2E9F4E0E4918E2F90E07B
:10368000E2E9F4E028C0E8E6F4E0E4918E2F90E06F
:10369000E8E6F4E020C08330910508F0B6C0880F5A
:1036A000991FFC01E25AFE4F0190F081E02D89E064
:1036B00090E014C08330910508F0A7C0FC01EE0F24
:1036C000FF1FE85AFE4F0190F081E02DDC01AB5A5C
:1036D000BE4F8C9190E0009709F497C02091E800CC
:1036E000277F2093E8002091F7033091F8032817F3
:1036F000390708F4C90140E0009789F12091EF03F0
:10370000222309F43DC02530D9F12091E80023FDA2
:1037100037C02091E80022FD2FC02091E80020FF53
:10372000EBCF4091F3002091F20030E0342B009772
:1037300059F02830310540F444914093F10031961E
:1037400001972F5F3F4FF3CF41E02830310509F05B
:1037500040E02091E8002E772093E800CDCF411182
:10376000CDCF0AC08091EF03882351F0853041F01E
:103770008091E80083FD04C08091E80082FFF2CFD1
:103780008091E8008B778093E8003FC08038E9F5AE
:103790008091E800877F8093E8008091F003809318
:1037A000F1008091E8008E77D4CE81112EC08091F7
:1037B000F3039091F403992702973CF58091E80078
:1037C000877F8093E8001091F3031093F0030E9429
:1037D000A31D111106C08091E30087FD02C081E0A6
:1037E00001C084E08093EF0342E061EC81E00E943D
:1037F000C21D42E061EC82E00E94C21D42E261EC27
:1038000083E00E94C21D8091EF038091E80083FF56
:1038100010C08091E800877F8093E8008091EB00E2
:1038200080628093EB0005C082E190E0E4E3F4E085
:1038300055CFAA96E3E00C94092E08958091CC030D
:10384000089580936D0570936F0560936E05809168
:10385000EF03843001F583E08093E9008FEF9091CE
:10386000E800815095FD06C095ED9A95F1F70000AE
:103870008111F5CF8091E80085FF0DC040E050E058
:1038800063E070E08DE695E00E942C198091E800DD
:103890008E778093E8000895BC0184E00E94211C8B
:1038A0000895BC0183E00E94211C089522E020932A
:1038B000E9002FEF3091E800215035FD06C035EDCD
:1038C0003A95F1F700002111F5CF2091E80025FF8E
:1038D0000BC040E050E065E070E00E942C19809140
:1038E000E8008E778093E8000895CF93DF932091CE
:1038F0001801222339F020916B0527FF03C060E2F5
:1039000023E002C068E021E02093E9002FEF30912E
:10391000E800215035FD06C035ED3A95F1F700007D
:103920002111F5CF2091E80025FF1DC0EC01809109
:103930001801811105C040E050E068E070E003C06C
:1039400070E040E050E0CE010E942C198091E80028
:103950008E778093E80080E2FE01ADECB3E0019049
:103960000D928A95E1F7DF91CF910895A4E0B0E040
:10397000ECEBFCE10C94EB2D8033910588F5122FD4
:10398000042FF62EBC01660F771F660F771F6A564D
:103990007B4F44E050E0CE0101960E94712E898158
:1039A00083704A81282F30E050E9859FC00111249F
:1039B000865E9B4FFC01E40FF11DB497F0824B81B2
:1039C000FC01E40FF11DB49700834C81840F911D1D
:1039D000FC01B4971083F901E85EFB4F81E080831E
:1039E0002496E5E00C94072EFF920F931F93CF933C
:1039F000DF93182F062FF42EC0E0D0E02F2D402F9C
:103A0000612FCE010E94B61C2196C033D105B1F7BB
:103A1000CDB7DEB7E5E00C94072E1F920F920FB6DC
:103A20000F9211242F933F934F935F936F937F9344
:103A30008F939F93AF93BF93CF93DF93EF93FF93B6
:103A4000C091E900CF708091EC00D82FD17080FD3B
:103A5000D0E81092E9008091F000877F8093F00019
:103A600078940E9456191092E9008091F0008860C5
:103A70008093F000CD2BCF70C093E900FF91EF91C0
:103A8000DF91CF91BF91AF919F918F917F916F9176
:103A90005F914F913F912F910F900FBE0F901F900C
:103AA0001895E8EDF0E080818E7F80831092E2002F
:103AB0001092DA001092E100A0EEB0E08C918160EB
:103AC0008C9380818F77808319BCA7EDB0E08C91B7
:103AD0008E7F8C9380818F7E8083109270050895F5
:103AE0002091E4003091E50095E64091EC00842FB0
:103AF000817040FF23C08091E80080FD1DC080914F
:103B0000EF03882399F0853099F08091EB0085FDD3
:103B100011C04091E4005091E5002417350729F3C6
:103B2000915011F09A01E1CF84E0089582E0089568
:103B300083E0089581E0089580E008954091E800D1
:103B400042FFDDCF08958091F10387FF11C080917E
:103B5000E80082FD05C08091EF038111F8CF11C00C
:103B60008091E8008B770BC08091EF03882349F0A8
:103B70008091E80080FFF8CF8091E8008E778093F5
:103B8000E8000895982F973068F59093E90098170A
:103B900039F07091EC002091ED005091F00003C0DD
:103BA000242F762F50E021FD02C09F5FECCF309193
:103BB000EB003E7F3093EB003091ED003D7F309382
:103BC000ED003091EB0031603093EB007093EC002E
:103BD0002093ED005093F0002091EE0027FDE5CFFB
:103BE00080E008958F708093E90081E00895A0E05F
:103BF000B0E0EDEFFDE10C94E82DC8EDD0E0888158
:103C00008F7E8883E7EDF0E080818160808384E0AF
:103C100082BF81E08093700588818E7F888302EE69
:103C200010E0F80110821092DA0081EEC82ED12C3B
:103C3000F601108288818F778883888180688883E5
:103C400088818F7D888319BC1092EF031092F00356
:103C50001092EE031092ED0390EEE92EF12CF70195
:103C600080818B7F808388818160888342E060E0EF
:103C700080E00E94C21DF60180818E7F8083F80162
:103C8000808181608083808188608083F70180816A
:103C90008E7F8083888180618883CDB7DEB7E8E03E
:103CA0000C94042E1F920F920FB60F9211242F9393
:103CB0003F934F935F936F937F938F939F93AF93B4
:103CC000BF93EF93FF938091E10082FF09C0809141
:103CD000E20082FF05C08091E1008B7F8093E100CC
:103CE0008091DA0080FF2AC08091D80080FF26C032
:103CF0008091DA008E7F8093DA008091D90080FF76
:103D000018C080E189BD82E189BD09B400FEFDCF04
:103D100081E08093EF038091700581110FC00E94B4
:103D2000511D0E94F71D8091E20084608093E200A3
:103D300005C019BC1092EF03109270058091E1004C
:103D400080FF17C08091E20080FF13C08091E200E5
:103D50008E7F8093E2008091E20080618093E20098
:103D60008091D80080628093D80019BC85E0809350
:103D7000EF038091E10084FF30C08091E20084FF76
:103D80002CC080E189BD82E189BD09B400FEFDCF70
:103D90008091D8008F7D8093D8008091E1008F7E44
:103DA0008093E1008091E2008F7E8093E200809119
:103DB000E20081608093E2008091F003882311F09B
:103DC00084E007C08091E30087FD02C081E001C06C
:103DD00083E08093EF038091EF038091E10083FF04
:103DE00027C08091E20083FF23C08091E100877F9C
:103DF0008093E10082E08093EF031092F0038091C2
:103E0000E1008E7F8093E1008091E2008E7F8093BD
:103E1000E2008091E20080618093E20042E060E095
:103E200080E00E94C21D8091F00088608093F000C5
:103E3000FF91EF91BF91AF919F918F917F916F9182
:103E40005F914F913F912F910F900FBE0F901F9058
:103E500018952091F7033091F8032617370748F09B
:103E60006115710539F42091E8002E772093E80060
:103E700001C0B901FC0120E06115710579F1809163
:103E8000EF038823F1F18530F1F18091E80083FDA3
:103E90003CC08091E80082FD2EC08091E80080FF48
:103EA000EBCF2091F3008091F20090E0922B61150E
:103EB000710551F08830910538F421912093F1007B
:103EC000615071090196F3CF21E0089709F020E0D5
:103ED0008091E8008E778093E800CECF2111CFCF7C
:103EE0000AC08091EF03882361F0853061F08091F2
:103EF000E80083FD0AC08091E80082FFF2CF80E0F5
:103F0000089582E0089583E0089581E0089578940B
:103F10001F920F920FB60F9211248F939F93AF931E
:103F2000BF938091670590916805A0916905B09154
:103F30006A050196A11DB11D8093670590936805E0
:103F4000A0936905B0936A05BF91AF919F918F913E
:103F50000F900FBE0F901F9018959C014FB7F894CB
:103F60008091670590916805A0916905B0916A05F7
:103F70004FBF821B930B08952FB7F894609167058C
:103F8000709168058091690590916A052FBF089529
:103F90002FB7F8948091670590916805A091690505
:103FA000B0916A052FBF08951F920F920FB60F921E
:103FB00011248F939F93AF93BF93809166058111D6
:103FC00013C08091670590916805A0916905B09133
:103FD0006A054196A11DB11D809367059093680500
:103FE000A0936905B0936A05BF91AF919F918F919E
:103FF0000F900FBE0F901F9018952091180122234B
:10400000C9F020916B0527FF15C0262F2695269510
:1040100026952E31C8F4FC01E20FF11D677081E096
:1040200090E001C0880F6A95EAF780959281892314
:1040300082830895FC0106962281621301C01282D8
:104040003196E817F907C1F708952091640530917A
:1040500065052817390771F090936505809364050D
:10406000E0916205F0916305309721F00084F185BD
:10407000E02D09950895209160053091610528177C
:10408000390771F09093610580936005E0916205B6
:10409000F0916305309721F00680F781E02D0995B6
:1040A0000895E0916205F0916305309729F0019041
:1040B000F081E02D0995089580E00895882311F09E
:1040C000FA0101C0FB0109950895A0E0B0E0EBE61C
:1040D000F0E20C94E92D262F30E0A901425A5A4F04
:1040E0007A01FA019081911107C0F7011082CDB7D2
:1040F000DEB7E7E00C94052ED82EF2E16F9FE001C9
:10410000112400E010E0F801EC0FFD1FE65CFA4F0F
:104110004081602F8D2D0E9464290F5F1F4F023157
:10412000110589F7E2CFCF93DF93C82F4BE06DEFF6
:104130000E94642940E06AE08C2F0E9464298FE38A
:104140009CE90197F1F700C0000040E060E08C2F8F
:104150000E94642940E061E08C2F0E94642940E0C5
:1041600066E08C2F0E94642940E06DEF8C2F0E9446
:104170006429D0E040E06D2F8C2F0E946429DF5F1E
:10418000D231C1F740E06D2F8C2F0E946429DF5F90
:10419000D432C1F740E06D2F8C2F0E946429DF5F7D
:1041A000D43BC1F74BE06DEF8C2F0E94642941E0B6
:1041B0006AE08C2F0E94642940E06DEF8C2F0E94F2
:1041C0006429DF91CF9108950F931F93CF93DF93CD
:1041D000082F000FEB0114E210930404E5E0F4E073
:1041E000DE018D91819384E0E531F807D1F723E07A
:1041F00030E041E150E064E074E0802F0E94A52DA2
:10420000105F6096143B41F7DF91CF911F910F91A2
:104210000895A7E1B0E0EFE0F1E20C94ED2D4B8BB7
:104220005C8B6D8B7E8B8F8B61111092910386E07E
:104230009E01235F3F4FD901E82F1D92EA95E9F7D0
:1042400095E0FE017396D90101900D929A95E1F7E0
:104250009C894E895F897B897D879E876F87598B73
:10426000488BF901DE01179601900D928A95E1F7CE
:10427000CE0107960E94391281113EC086E0FE01F0
:104280003796DE01119601900D928A95E1F7FF8134
:10429000E8856A857B856115710531F0EF3F31F462
:1042A00081E0FF3F19F403C081E001C080E080FDA0
:1042B00023C020913E0330E0C90101968770992701
:1042C00040916F0350E08417950779F1F983EA83F1
:1042D0007D836C8396E0929FD001939FB00D112453
:1042E000A15CBC4FFE01319601900D929A95E1F7C9
:1042F00080933E030E94C61116E080916F03909157
:104300003E03891709F1189FC0011124815C9C4F5D
:104310000E9439128823C1F080916F0390E00196CA
:104320008770992780936F03E8CF1092CA030E9489
:10433000DA2B10923E0310926F03E8E3F3E086E07D
:10434000DF011D928A95E9F76796E3E00C94092E48
:10435000982F92959F7019F0892F24E001C020E0DA
:10436000982F9695969511F02E5F892F982F9695F8
:1043700009F02F5F822F08951092CA030E94DA2B52
:104380002FEF84E39CE0215080409040E1F700C093
:1043900000009AE088E10FB6F894A8958093600039
:1043A0000FBE90936000FFCFCF93C82F0E94A8212B
:1043B00056985E9825982D9826982E9827982F988D
:1043C00090E0FC013197E730F105A8F4E459FF4F84
:1043D0000C94F130259A2D9A0EC0259A2D9A269A82
:1043E0002E9A09C0259A2D9A04C0259A2D9A269AAC
:1043F0002E9A279A2F9A8C2FCF910895A0E0B0E0A3
:10440000E4E0F2E20C94DF2D20E9289F7001299F5F
:10441000F00C1124C0E0D0E000E010E067018FEF65
:10442000C81AD80A570182E0A80EB11CF701EC0F98
:10443000FD1FEA5AFA4F6491F601EC0FFD1FEA5A8C
:10444000FA4F7491F501EC0FFD1FEA5AFA4F84916F
:10445000611107C0711105C0811103C020E040E067
:104460003CC00E946326962E372E882E6091010450
:1044700070E080E090E00E94D62F20E030E04FE72F
:1044800053E40E94352F2B013C01682D70E080E041
:1044900090E00E94D82FA30192010E9464300E94F4
:1044A000A72F862E692D70E080E090E00E94D82F23
:1044B000A30192010E9464300E94A72F962E632DC3
:1044C00070E080E090E00E94D82FA30192010E944A
:1044D00064300E94A72F282D492DC8010E940A0987
:1044E0000F5F1F4F2396C039D10509F09FCFCDB77D
:1044F000DEB7E1E10C94FB2D80E290E09093170190
:10450000809316018091710581110EC00E94D92CF3
:1045100081E0809371052FEF83ED90E3215080407F
:104520009040E1F700C0000060E570E080E40E9488
:10453000DF2C9093170180931601892B09F04EC050
:1045400060E570E080E00E94522D90931701809307
:104550001601892B09F042C060E570E080E00E94FE
:10456000522D9093170180931601892BB9F560E5C0
:1045700070E08FE30E94522D9093170180931601F3
:10458000892B61F50E94C62D60E570E080E40E94F1
:10459000DF2C9093170180931601892BF9F460E5C5
:1045A00070E08CE00E94522D9093170180931601C9
:1045B000892BA1F460E570E080E00E94522D909379
:1045C000170180931601892B49F460E570E08FE3B1
:1045D0000E94522D90931701809316010E94C62DC0
:1045E000809116010895CF93DF9356985E98259891
:1045F0002D9826982E9827982F98C8E8D0E08FEF0E
:1046000090E099838883AAE8B0E011969C938E93FA
:10461000ECE8F0E091838083259A2D9A2FEF80E7D4
:1046200092E0215080409040E1F700C00000269ABF
:104630002E9A2FEF80E792E0215080409040E1F7E2
:1046400000C00000279A2F9A2FEF80E792E02150B8
:1046500080409040E1F700C0000025982D982FEF92
:1046600080E792E0215080409040E1F700C00000D8
:1046700026982E982FEF80E792E0215080409040BE
:10468000E1F700C0000027982F988091830587707C
:104690002FEF829FC0011124959587959595879559
:1046A00099279983888311969C938E939183808315
:1046B00056985E9825982D9826982E9827982F988A
:1046C000DF91CF910895CF93E82F873080F58091C7
:1046D000160190911701892B09F047C0CE2F60E594
:1046E00070E080E40E94DF2C909317018093160104
:1046F000892BD1F460E570E082E10E94522D909305
:10470000170180931601892B79F481E090E001C0B4
:10471000880FCA95EAF760E570E080950E94522DF7
:1047200090931701809316010E94C62D1EC090E041
:10473000FC013797E730F105C0F4ED58FF4F0C94BA
:10474000F130209A289811C0219A29980EC0229AF7
:104750002A980BC0239A2B9808C0529A5A9805C0E1
:10476000539A5B9802C03E9A4698CF91089520983C
:1047700028982198299822982A9823982B9852981B
:104780005A9853985B983E9846980895CF938730EF
:1047900040F58091160190911701892B59F560E53C
:1047A00070E081E40E94DF2C909317018093160142
:1047B000892B11F0C0E011C080E590E00E94812DAE
:1047C00097FF05C09093170180931601F3CFC82F70
:1047D000C09510921701109216010E94C62D8C2FC1
:1047E0000AC09FB18FB1807F869586959370892B83
:1047F000809501C080E0CF9108958098889A819833
:10480000899A84988C9A85988D9A86988E9A87989A
:104810008F9A08950F931F93522F10E0F801EE0F17
:10482000FF1FE754FE4FE081F0E0B097EE0FFF1F4F
:104830009F015203D001539FB00D1124000F111F8F
:10484000F801E854FE4F008110E000571109000FF5
:10485000111F40039001419F300D11242A0F3B1F6F
:1048600037FF02C021583F4F220F232F221F330B47
:10487000620F1F910F9108950F931F93522F10E015
:10488000F801EE0FFF1FE754FE4FE081F0E0B09714
:104890009F015203D001539FB00D1124000F111F2F
:1048A000F801E854FE4F008110E000571109400361
:1048B0009001419F300D11242A0F3B1F37FF02C08A
:1048C00021583F4F220F232F221F330B620F1F91BE
:1048D0000F910895EF920F931F9393E0099F80012A
:1048E0001124159507956E2D600F1F910F91EF9074
:1048F0000895A22F50E0FA01EE0FFF1FE754FE4F7C
:104900009081905297FD9195440F551FFA01E854FC
:10491000FE4F3081232F30E02A1B3109290F311D32
:1049200097FD3A95620F0895E42FF0E0EE0FFF1F18
:10493000E754FE4F6081621B0895E42FF0E0EE0F14
:10494000FF1FE854FE4F6081621B0895622F089597
:10495000E42FF0E0EE0FFF1FE854FE4F408134EEED
:10496000439F412D1124E82FF0E050E0445E5F4F5B
:10497000DA01A21BB1099D01B7FF03C03195219552
:10498000310993E0220F331F9A95E1F7AF01421BE3
:10499000530B9A0157FF02C020E030E0582F259FAB
:1049A000212D1124822F0895E42FF0E0EE0FFF1F38
:1049B000E854FE4F408134EE439F412D1124E72FF0
:1049C000F0E050E0445E5F4FDA01A21BB1099D01A7
:1049D000B7FF03C031952195310993E0220F331FB2
:1049E0009A95E1F7AF01421B530B9A0157FF02C0A2
:1049F00020E030E0279F212D1124722F0895FC0123
:104A00009B01009721F477FF2BC080E80895AC014B
:104A100097FF04C044275527481B590BB901640F61
:104A2000751F37FD0CC0241B350BC901A5E0880F8D
:104A3000991FAA95E1F70E94DD3080E20CC0CB01FE
:104A400065E0880F991F6A95E1F7BA01621B730B45
:104A50000E94DD3080E6861BF7FF03C08195089534
:104A600080E00895EF920F93CF93DF93D72FC82F55
:104A7000C9010E19BA010E94FF24602F681B7D2F07
:104A80008C2FDF91CF910F91EF9008950F93CF93DB
:104A9000DF93D72FC82FC901BA010E94FF24682FC6
:104AA000600F7D2F8C2FDF91CF910F910895EF92A2
:104AB0000F931F93CF93DF93D62FC72F182FC901C2
:104AC0000E19010FBA010E94FF24081B202F219FFD
:104AD000212D1124822F6D2F7C2FDF91CF911F91DB
:104AE0000F91EF900895EF920F931F93CF93DF9361
:104AF000D62F172FC82FC9010E19070FBA010E9410
:104B0000FF24702F781B719F712D11246D2F8C2F16
:104B1000DF91CF911F910F91EF900895FF920F9326
:104B20001F93CF93DF93F62ED72F182FC901C12FD4
:104B3000C01BBA010E94FF24982F990F890FC81B30
:104B40002C2F219F212D1124822F6F2D7D2FCDB74A
:104B5000DEB7E5E00C94072EFF920F931F93CF93DF
:104B6000DF93F62E172FD82FC901C72FC01BBA010C
:104B70000E94FF24982F990F890F7C2F781B719F1B
:104B8000712D11246F2D8D2FCDB7DEB7E5E00C947C
:104B9000072E482F982F46FD9095E92FEF739F70B1
:104BA00046FD9F5FE295EF70EE0FF0E0E85BFD4F92
:104BB0002181299F802D212D112482958F7022958E
:104BC000207F822B3081982F930F892F47FD81956D
:104BD0008058089540911D0150911E0125E038E054
:104BE000429FC001439F900D529F900D1124875EFC
:104BF000994C90931E0180931D01890F0895BC016B
:104C00008230910508F40895613E8EE1780748F4FA
:104C10009B0195E0369527959A95E1F748E0420F7C
:104C200001C04FEF91E0242F30E0290F311D359561
:104C30002795229FF001239FF00DF00D11246E1790
:104C40007F0718F44FEF420F04C02F3F39F091E077
:104C5000920F491740F78FEF890F08958FEF08954E
:104C60000F93CF93DF93D72FC82F47FD4195E8E3EC
:104C7000F0E0CF01841B910947FD9395889FB00117
:104C8000899F700D700D1124229FC001239F900DEC
:104C9000900D1124860F971F0E94FF25682F660F25
:104CA000860F682F600F7D2F8C2FDF91CF910F9192
:104CB000089520E030E0869F212D969F200D311D24
:104CC0001124C9010895A0E0B0E0E9E6F6E20C94F1
:104CD000E82DF62E472FE82FF0E0711106C0EA5FAD
:104CE000F84F8491782F682F73C0272F30E0EA5F48
:104CF000F84FE491FE2F0E2F10E056E0659FC001A3
:104D00001124CFEFD0E0BE010E94CA2D5BEA56030A
:104D1000C001579F900D11248F0D911D8F0D911D76
:104D2000982F990F980F7E01E21AF30AE09ED001A6
:104D3000E19EB00DF09EB00D11248B2F499FA00174
:104D40001124452F55277E01E41AF50AE09EA001A3
:104D5000E19E500DF09E500D11246E01C91AD1082C
:104D6000C29E7001C39EF00CD29EF00C11242F2D18
:104D70003327C21BD30BC09F9001C19F300DD09F22
:104D8000300D1124932F6230710591F048F46115B4
:104D90007105E1F061307105B9F49E2FE52F16C061
:104DA0006430710569F040F06630710579F00CC02F
:104DB0009E2FEB2F832F0AC0EB2F8F2F952F06C02E
:104DC0009B2F8E2FE32F02C09B2F852F7E2F692FC5
:104DD000CDB7DEB7E8E00C94042E8D3E39F4909107
:104DE0007B0597FF35C010927B0559C08E3E29F494
:104DF00090917B051916BCF32BC090917A058F3EDC
:104E000029F497FF25C010927A0549C0803F19F414
:104E10001916CCF31DC090917C05893F29F4191611
:104E2000BCF410927C053BC08A3F19F497FF10C078
:104E3000F8CF8B3F39F490917D0597FF09C0109210
:104E40007D052DC08C3F21F490917D051916BCF392
:104E50009FE0980F983080F421E030E0A90102C073
:104E6000440F551F9A95E2F7CA01809590917905F4
:104E700089238093790513C08D3F21F480917405B7
:104E80008E7F0BC08E3F21F4809174058D7F05C00D
:104E90008F3F29F4809174058B7F809374058091F6
:104EA0007A05811106C080917B05811102C01092A4
:104EB000730580917C05811106C080917D0581116B
:104EC00002C01092720508958091740580FD18C08B
:104ED00081FD14C082FD16C080917205882381F087
:104EE0008C3380F427E0829FC00111246CE370E0D2
:104EF0000E94DD30862F672B19F005C083E00895EE
:104F000081E0089587E008958091740580FD17C0C1
:104F100081FD17C082FD19C080917305882399F027
:104F20008C3398F428E3829FC00111246CE370E075
:104F30000E94DD30862F672B49F481E008958EE0D2
:104F400008958CE1089588E0089588E308958D3EE2
:104F500021F40E948427819504C08E3E29F40E948A
:104F6000842780937B0508958F3E21F40E94842737
:104F7000819504C0803F29F40E94842780937A059C
:104F80000895893F19F40E94642705C08A3F31F4CF
:104F90000E946427819580937C0508958B3F21F4BE
:104FA0000E946427819504C08C3F29F40E946427E5
:104FB00080937D0508959FE0980F983078F421E064
:104FC00030E0A90102C0440F551F9A95E2F7CA01CB
:104FD00090917905892B8093790508958D3F21F46F
:104FE0008091740581600BC08E3F21F4809174051F
:104FF000826005C08F3F29F480917405846080939E
:10500000740508950E94C81F20917A05211104C0DB
:1050100020917B05222321F09093780580937705DA
:1050200020917C05211104C020917D05222321F0CF
:105030009093760580937505E0916205F091630584
:10504000309731F00480F581E02D89E795E00995EE
:105050000895EEEFF3E0248130E1231B08F420E013
:1050600024838091FD0381608093FD030895EEEF1A
:10507000F3E0248130E1230F08F42FEF24838091A3
:10508000FD0381608093FD030895809118048823B7
:1050900029F06AE174E084E70E94E4201092180489
:1050A00080911904882329F06AEA74E087E70E9456
:1050B000E420109219040895A4E0B0E0E2E6F8E2DA
:1050C0000C94E22D0E94D92C84E70E94932087E75C
:1050D0000E94932006E914E072E1772EE8E0CE2EDC
:1050E000D12CEE24E394F12C6624639444E050E048
:1050F000B801CE0101960E94712E2A8130E0C901CB
:105100008497AB80B12C44E2A41AB108EC81F0E0A2
:10511000B497AC0197FF02C0495F5F4F63E05595BC
:1051200047956A95E1F72981237030E0729EB001BE
:10513000739E700D1124665C7A4F4B01840E911C96
:10514000B6010E94DD30D70102C0AA0FBB1F8A95AD
:10515000E2F7CD01D4019C91892B8C93C501B7FC5A
:10516000079653E0959587955A95E1F7729EA001B1
:10517000739E500D1124465C5A4F4A01880E911CB3
:10518000C501B6010E94DD30A70102C0440F551FC2
:105190008A95E2F7CA01D4019C91892B8C93CF01A7
:1051A000F7FD079643E0959587954A95E1F7729E3E
:1051B000A001739E500D1124465C5A4F5A01A80E4F
:1051C000B11CCF01B6010E94DD30F70102C0EE0F25
:1051D000FF1F8A95E2F7CF01D5019C91892B8C9313
:1051E000F901E25AFA4F60820C5F1F4FB5E00635B5
:1051F0001B0709F07BCF60E084E70E94652061E037
:1052000087E70E9465202496EEE00C94FE2DEEEFD9
:10521000F3E0438120E1421B08F440E08181628198
:1052200090E00E9492170895EEEFF3E0438120E1B1
:10523000420F08F44FEF8181628190E00E94921743
:105240000895EEEFF3E0628120E1621B08F460E074
:105250008181438190E00E9492170895EEEFF3E080
:10526000628120E1620F08F46FEF8181438190E059
:105270000E9492170895EEEFF3E0818190E0438160
:10528000628108970E9492170895EEEFF3E0818102
:1052900090E04381628108960E9492170895809160
:1052A000FE0386958695815009F48EE10E94A2172F
:1052B00008958091FE03869586958F5F8F3108F063
:1052C00081E00E94A2170895E4E0F4E06083418346
:1052D00023E030E042E050E0BF01880F0E94A52D9E
:1052E00008951F93CF93DF93FC01E85EFD4F20816B
:1052F0006223B9F0EC010E94612E182F0E94612EEA
:105300008F77782F20E8720F08F47FEF612F80915C
:1053100001040E946326462F282F672FCE010E948A
:105320000A09DF91CF911F910895A0E0B0E0EBE969
:10533000F9E20C94E92DEC01FC01E85EFD4F90814F
:10534000692349F1D0900004009101041091FF03FA
:10535000E12EF12C0E94EA25282FC7018C549F4F83
:1053600068E671E00E94DD308E199F0997FD039673
:1053700095958795959587952370612F289F600D4A
:1053800011247D2D802F0E946326462F282F672F02
:10539000CE010E940A09CDB7DEB7E7E00C94052ED6
:1053A0000E94A21708958091FE03837011F4109259
:1053B0001C018091FE038C7F81608093FE03089521
:1053C0000E945C2880E090E00E94982E883E9E4FCC
:1053D00021F00E94B5100E94A00E46E050E06CE162
:1053E00070E08EEF93E00E947A2E1092FD03809180
:1053F000FE038C7F11F40E94A00E08950F931F935B
:10540000CF930E94BC1F60937E0570937F058093AD
:1054100080059093810520918705211108C0C091D6
:10542000FE032C2F237019F0C695C69501C0C0E06D
:1054300020911C012130A1F038F0223009F461C024
:10544000233009F46BC095C0109219016093F903E1
:105450007093FA038093FB039093FC0381E05BC09D
:105460008C2F0E940D09CC2309F483C08091830501
:1054700083FD7FC08091820590E0A0E0B0E0AC01A8
:10548000BD01F4E07695679557954795FA95D1F764
:10549000411551056105710521F4AC01BD0180E0A4
:1054A00001C084E08A019B01E2E0369527951795BB
:1054B0000795EA95D1F7011511052105310519F078
:1054C0008E5FB901A8017695679557954795452B4D
:1054D000462B472B09F08F5F813029F0823041F451
:1054E00082E090E002C081E090E00E94FE2141C095
:1054F0008091030481113DC040E060E00E940709F3
:1055000038C0C09320018091FE03837080931F01F7
:105510000E94452883E080931C012BC08091FD03ED
:10552000882351F046E050E06CE170E08EEF93E0AC
:105530000E949E2E1092FD034091F9035091FA03B0
:105540006091FB037091FC032FB7F894809167057D
:1055500090916805A0916905B0916A052FBF841BE1
:10556000950BA60BB70B4A97A105B10510F0109249
:105570001C01CF911F910F91089580E090E00E944F
:105580003B2080E090E00E942520109291030E9431
:105590003811E9E7F5E085E0DF011D928A95E9F72A
:1055A0001092730510927205109274050E940228E1
:1055B0000895CF92DF92FF920F931F93CF93DF93C3
:1055C0006C010091820580919303082BC7E0D0E025
:1055D00010E0C8010C2E02C0959587950A94E2F759
:1055E00080FD04C02197A8F7F12C09C0FC2EB6015C
:1055F0008C2F0E94000F0E94190F019799F38F2D95
:10560000DF91CF911F910F91FF90DF90CF90089580
:10561000CF93DF93EC010E94D92ABE010E94000FB4
:105620000E94190FDF91CF910895292F9E3078F5B0
:10563000863068F590E036E0239F800D911D11249F
:10564000682F677023E0969587952A95E1F7FC010E
:10565000EE0FFF1FE80FF91FE857FA4F40E050E048
:1056600080E0219130E0062E02C0369527950A94FD
:10567000E2F721703327042E01C0220F0A94EAF7C3
:10568000822B4F5F5F4F4330510559F7089580E0FB
:105690000895292F9E3088F5863078F590E036E021
:1056A000239F800D911D1124282F277051E001C0E8
:1056B000550F2A95EAF723E0969587952A95E1F705
:1056C000FC01EE0FFF1FE80FF91FE857FA4F20E02B
:1056D00030E070E04081CB01022E02C096958795A4
:1056E0000A94E2F78170819584278523842781932A
:1056F0002F5F3F4F2330310569F708950E94D42171
:10570000809382050E94BD2A089521E030E001C007
:10571000220F8A95EAF720958091820582230E94C4
:105720007E2B089521E030E001C0220F8A95EAF730
:1057300080918205822B0E947E2B08958093930393
:105740000E94BD2A0895CF93FC018081918123811D
:105750003481232B31F09F3F31F491E08F3F19F4D6
:1057600003C091E001C090E0C92FC17090FD1CC042
:10577000808191810E94082B92959F70963079F0DC
:1057800010F4925001C09A50923088F4803F71F02A
:1057900018F4883E60F40AC0843F49F407C0883E8C
:1057A00028F0813F21F402C0C0E001C0C1E08C2F8D
:1057B000CF91089580911801882331F080916B0575
:1057C00087FF02C08EE101C086E0EAE1F3E0DF017D
:1057D0001D928A95E9F70E94BD2A0895882321F039
:1057E0000E9431110E9438110895882339F0909158
:1057F000CA03892B8093CA030E9438110895882315
:1058000091F19CEF980F913A30F4682F88E193E082
:105810000E94FD1F0DC090E2980F983060F48770D1
:1058200091E001C0990F8A95EAF7892F0E94311102
:105830000E94381108959BE5980F933028F480E07A
:1058400090E00E943B20089598E5980F973128F446
:1058500080E090E00E94252008958D3E20F00E9477
:10586000ED260E9402280895CF93882309F49FC053
:10587000C82F8CEF8C0F813A08F05BC08091180123
:105880008823E1F080916B0587FF18C0EC2FE69527
:10589000E695E695F0E0E85EFC4F8281282F30E047
:1058A0004C2F477081E090E002C0880F991F4A9505
:1058B000E2F782239323892B59F411C0EAE1F3E044
:1058C0008191C81729F083E0E032F807C9F707C0D3
:1058D0006C2F88E193E00E94FD1F0E943811809197
:1058E00018018823B1F080916B0587FF12C0EC2F5F
:1058F000E695E695E695F0E0E85EFC4FC77081E03E
:1059000090E001C0880FCA95EAF79281892B8283C3
:1059100020C0AAE1B3E0EFEF80E09D91C917C9F084
:10592000EF3F19F4911101C0E82F8F5F8630A9F77E
:1059300035C080E28C0F883078F4C77081E090E049
:1059400001C0880FCA95EAF79091CA03892B80930A
:10595000CA030E9438112BC0EBE5EC0FE33040F492
:10596000F0E0EC5DFE4F808190E00E943B201FC084
:10597000E8E5EC0FE73150F4F0E0EE0FFF1FE95DD2
:10598000FE4F808191810E94252011C0CD3E78F08C
:105990008C2F0E94A7270E94022809C0EF3FC9F25E
:1059A0000E2E000CFF0BE85EFC4FC283D2CFCF91CE
:1059B00008951092B9008CE08093B8000895A0E09B
:1059C000B0E0E5EEFCE20C94E52DB82EEB010E9470
:1059D000C81F6C01C431D10558F0CF3F8FEFD807F5
:1059E00059F0CE0164E170E00E94CA2D7B0107C02E
:1059F000EE24E394F12C03C025E0E22EF12C84E8A0
:105A0000A82E94EA992E1092BC009092BC000E949D
:105A1000C81F8C018091BC0087FD07C0C8010E948F
:105A2000AD1FE816F906B0F729C08091B900887F4C
:105A3000883041F08091B900887F803119F00FEFF4
:105A40001FEF1EC0B092BB00A092BC000E94C81FF6
:105A50008C018091BC0087FD07C0C8010E94AD1F6A
:105A6000E816F906B0F70AC08091B900887F88313E
:105A700011F0803421F700E010E00EC00EEF1FEFB0
:105A8000CF3F8FEFD80709F4BECFC6010E94AD1FEC
:105A9000C817D90708F0B7CFC801CDB7DEB7EBE01C
:105AA0000C94012E0F931F93CF93DF93EB01809300
:105AB000BB0084E88093BC000E94C81F8C018091C9
:105AC000BC0087FD0DC0CF3F8FEFD807C1F3C801E1
:105AD0000E94AD1FC817D90790F78EEF9FEF0CC03B
